:100000000C942A000C9447000C9447000C94470071
:100010000C9447000C9447000C9447000C94470044
:100020000C9447000C9447000C9447000C94470034
:100030000C9447000C9447000C9447000C94470024
:100040000C9447000C9447000C9447000C94470014
:100050000C94470011241FBECFE5D4E0DEBFCDBF16
:1000600010E0A0E6B0E0E8E5F3E002C005900D92F4
:10007000A636B107D9F720E0A6E6B0E001C01D9290
:10008000A736B207E1F70E94FC000C94AA010C9479
:100090000000962F92959F7092BB811104C082B38D
:1000A0008F7E82BB03C082B3806182BB8091660079
:1000B0008F5F8093660082B3806282BB809166000E
:1000C0008F5F80936600809166008F5F80936600EB
:1000D00082B38F7D82BB809166008F5F80936600C4
:1000E00080916000882319F010926000089582B317
:1000F000807F82BB82B36F70682B62BB8091660089
:100100008F5F8093660082B3806282BB80916600BD
:100110008F5F80936600809166008F5F809366009A
:1001200082B38F7D82BB809166008F5F8093660073
:10013000089512BA8FEF81BB2FEF89E698E1215025
:1001400080409040E1F700C000006CE280E00E9437
:10015000490025E82A95F1F700006CE280E00E9452
:10016000490085E88A95F1F700006EE080E00E9482
:10017000490095E89A95F1F7000066E080E00E945A
:10018000490025E82A95F1F7000061E080E00E942F
:1001900049008FE697E10197F1F700C0000008954C
:1001A0008150823090F4662381F0613170F490E0E8
:1001B0000296615020E4829F600D112480E00E942D
:1001C000490085E88A95F1F700000895682F81E0DD
:1001D0000E94490085E88A95F1F700000895CF93C1
:1001E000DF93EC0103C021960E94E6008881811113
:1001F000FACFDF91CF9108950E94990080E687B9E8
:1002000087E886B9369905C0349903C086B1806401
:1002100086B93699F7CF349BF5CF86B18F7E86B9F4
:1002200025B130E0A4EFB1E00E949B012FEF30E058
:1002300040E050E00E945A0149015A01CA01B90147
:1002400024E630E040E050E00E947C010F2EFAE00E
:10025000CF2ED12CE12CF12CF02DCA01B901A70130
:1002600096010E947C01162FC501B401A7019601D9
:100270000E947C01C62FCA01B901A70196010E9404
:100280007C01D62F61E081E00E94D00081E690E001
:100290000E94EF0080E3810F0E94E6008EE20E9440
:1002A000E60080E38D0F0E94E60080E38C0F0E9441
:1002B000E600A8CFA1E21A2EAA1BBB1BFD010DC0B0
:1002C000AA1FBB1FEE1FFF1FA217B307E407F50706
:1002D00020F0A21BB30BE40BF50B661F771F881FE2
:1002E000991F1A9469F760957095809590959B0178
:1002F000AC01BD01CF010895052E97FB1EF40094BB
:100300000E94930157FD07D00E945A0107FC03D0B9
:100310004EF40C94930150954095309521953F4FA4
:100320004F4F5F4F089590958095709561957F4FE1
:100330008F4F9F4F0895A29FB001B39FC001A39F0D
:10034000700D811D1124911DB29F700D811D11240E
:08035000911D0895F894FFCF00
:0603580001563D200000EB
:00000001FF
