:100000000C942A000C9434000C9434000C943400AA
:100010000C9434000C9434000C9434000C94340090
:100020000C9434000C9434000C9434000C94340080
:100030000C9434000C9434000C9434000C94340070
:100040000C9434000C9434000C9434000C94340060
:100050000C94340011241FBECFE5D4E0DEBFCDBF29
:100060000E9436000C9444000C9400008FEF8ABB71
:1000700081E08BBB80EE9EE20197F1F71BBA80E72F
:0C00800097E10197F1F7F4CFF894FFCF5F
:00000001FF
