:100000000C942A000C9447000C9447000C94470071
:100010000C9447000C9447000C9447000C94470044
:100020000C9447000C948A010C9447000C944700F0
:100030000C9447000C9447000C9447000C94470024
:100040000C9447000C9447000C9447000C94470014
:100050000C94470011241FBECFE5D4E0DEBFCDBF16
:1000600010E0A0E6B0E0E6E3F5E002C005900D92F6
:10007000A03AB107D9F720E0A0EAB0E001C01D9294
:10008000A43AB207E1F70E94FC000C9499020C9488
:100090000000962F92959F7092BB811104C082B38D
:1000A0008F7E82BB03C082B3806182BB8091A0003F
:1000B0008F5F8093A00082B3806282BB8091A0009A
:1000C0008F5F8093A0008091A0008F5F8093A0003D
:1000D00082B38F7D82BB8091A0008F5F8093A00050
:1000E00080916000882319F010926000089582B317
:1000F000807F82BB82B36F70682B62BB8091A0004F
:100100008F5F8093A00082B3806282BB8091A00049
:100110008F5F8093A0008091A0008F5F8093A000EC
:1001200082B38F7D82BB8091A0008F5F8093A000FF
:10013000089512BA8FEF81BB2FEF89E698E1215025
:1001400080409040E1F700C000006CE280E00E9437
:10015000490025E82A95F1F700006CE280E00E9452
:10016000490085E88A95F1F700006EE080E00E9482
:10017000490095E89A95F1F7000066E080E00E945A
:10018000490025E82A95F1F7000061E080E00E942F
:1001900049008FE697E10197F1F700C0000008954C
:1001A0008150823090F4662381F0613170F490E0E8
:1001B0000296615020E4829F600D112480E00E942D
:1001C000490085E88A95F1F700000895682F81E0DD
:1001D0000E94490085E88A95F1F700000895CF93C1
:1001E000DF93EC0103C021960E94E6008881811113
:1001F000FACFDF91CF9108950E9499008CE683BFDA
:100200001CBE87B3886087BB61E081E00E94D0009C
:1002100085E690E00E94EF0089B7816089BF8FB7C3
:1002200080688FBF8091A3008823E1F380916400F0
:100230008033C0F3809164008A33A0F71092A3004A
:1002400061E081E00E94D00086E790E00E94EF002C
:100250002FEF81E19AE7215080409040E1F700C004
:10026000000061E081E00E94D00085E690E00E94FD
:10027000EF00D8CFCF93DF93CDB7DEB763970FB63C
:10028000F894DEBF0FBECDBF81E1E7E8F0E0DE010C
:10029000119601900D928A95E1F780E18ABB80E08A
:1002A0000BC08AE08A95F1F700C089B380958F7002
:1002B00031F49AB3990F9ABB9AB39111F2CF9AB3D2
:1002C0009923F1F02AB31A8A04C09A899F5F9A8B06
:1002D00026952031D1F71B8A04C09B899F5F9B8B99
:1002E00086958130D1F78A899B89880F880F890F7D
:1002F000E1E0F0E0EC0FFD1FE80FF11D808101C08F
:100300008FE763960FB6F894DEBF0FBECDBFDF91C7
:10031000CF9108951F920F920FB60F9211242F9331
:100320003F934F935F936F937F938F939F93AF937D
:10033000BF93EF93FF93CF93DF93CDB7DEB72A97A9
:10034000DEBFCDBF8091A2008430A9F41092A2003C
:10035000809163008093A1000E943A018093630022
:100360009091A1009F3739F48F3729F091E0909355
:10037000A300809364008091A300882309F45EC0E9
:1003800080916400833429F080916400843409F002
:1003900055C01092A30080916400833491F4809141
:1003A00061009091620005969093620080936100D5
:1003B0008536910534F084E690E090936200809356
:1003C000610080916400843479F48091610090919F
:1003D000620005979093620080936100992324F452
:1003E00010926200109261002091610030916200D1
:1003F0004FEF429FC001439F900D112464E670E0CF
:100400000E943C0261506CBF4AE0BE016F5F7F4FAB
:1004100080916100909162000E94640261E082E03C
:100420000E94D00088E990E00E94EF00CE01019682
:100430000E94EF008BE990E00E94EF008091A20003
:100440008F5F8093A2002A960FB6F894DEBF0FBE8E
:10045000CDBFDF91CF91FF91EF91BF91AF919F9170
:100460008F917F916F915F914F913F912F910F905D
:100470000FBE0F901F90189597FB072E16F400944F
:1004800007D077FD09D00E94500207FC05D03EF44A
:10049000909581959F4F0895709561957F4F089530
:1004A000AA1BBB1B51E107C0AA1FBB1FA617B7079A
:1004B00010F0A61BB70B881F991F5A95A9F78095B6
:1004C0009095BC01CD010895BB274A3031F49923A2
:1004D00022F4BDE2909581959F4F0C947002BB274A
:1004E000FB015527AA27880F991FAA1FA41710F0F0
:1004F000A41B83955051B9F7A05DAA3308F0A95DFC
:10050000A193009779F7B111B1931192CB010C949B
:100510008902DC01FC01672F71917723E1F73297A3
:1005200004C07C916D9370836291AE17BF07C8F3CE
:060530000895F894FFCFCE
:100536000132007F7F417374657074202020202073
:1005460020202020200043616C63756C657A202092
:1005560020202020202000313233413435364237E6
:100566003839432A302344004C3D00252020000022
:00000001FF
